:020000040800F2
:100000002804002031320008093200080B320008B1
:1000100000000000000000000000000000000000E0
:100020000000000000000000000000007D1000083B
:1000300000000000000000003F1000088D0A0008CA
:10004000DF0900080000000037100008DB15000879
:100050000D320008832100085F23000813260008E2
:1000600000000000E7310008F331000861320008A9
:1000700063320008653200086732000800000000A3
:100080000F32000869320008000000006B320008DF
:100090006D3200086F3200087132000873320008B8
:1000A0007532000877320008793200087B32000888
:1000B0007D32000870B586B00B9D002D01D172B65F
:1000C000FEE70C9C002C01D172B6FEE75C26009680
:1000D000009E5C2E01D072B6FEE7256302255926EC
:1000E000A55500250395029404AD01950A9D009540
:1000F00000F030F8200000F071F8049806B070BDF0
:10010000FAB585B005001700B80000F02BFB06001B
:100110001CD05C2000F026FB040014D026630020D5
:1001200059216054039002940D9801900C9800900E
:10013000069B3A000599280000F00CF8200000F01A
:100140004DF8012004E0300000F056FB0020C043D1
:1001500007B0F0BDFBB515000A9CA522A900206BD5
:1001600000F0D2FB206BA90047183F1F07208743F0
:10017000780700253426019909180A7823189A551A
:100180000978002902D0401C1028F4D3432165547B
:10019000089E382E00D33726E662E66420004C30F5
:1001A0004560201D00F0DFFB2000183000F0DBFB75
:1001B00024613820801BA061646220004C3085607F
:1001C00020004C300573029A0099380000F008FCBA
:1001D00020600998002800D00460F7BDF8B504003D
:1001E00000F03CFC344DE86C401CE864334FA86AD6
:1001F000002825D1AC62E86C01282AD10026142001
:100200007043381800F0A0FB761C382EF7D3280076
:10021000743000F099FB2E008836300000F094FB1B
:10022000280000F091FB2800143000F08DFB28001E
:10023000383000F089FB28007430E8622E6308E053
:10024000A86D002805D1E06AA96AC96A884200D36E
:10025000AC62A86E401CA8666064E06A696D814269
:1002600000D26865211D14225043381800F07EFB2F
:1002700000F000FCA86D002806D0A86AC06AE16AF8
:10028000884201D200F0E4FBF1BD000010B504008B
:100290000FD00948006F002801D072B6FEE700F0C9
:1002A0003FF80021200000F031FA00F03FF800286C
:1002B00001D100F0CDFB10BDE01D00202810002072
:1002C00010B586B000240594049403AA04A905A8D7
:1002D00000F0A6FC05980290049801900094002379
:1002E000039A00BF0CA18548FFF7E4FE00280DD05B
:1002F00000F0ACFC0021C943012809D172B6354891
:10030000C16601218165046500F082FB06B010BD65
:100310008842FBD172B6FEE749444C45000000001C
:100320002C48016F491C016770470000F8B5002791
:1003300000260097264C206F002801D172B6FEE7F8
:1003400000F08CFB206F401E2067206F002837D103
:10035000E06C00281BD133E0E068C668300018303C
:1003600000F02AFB301D00F027FBF06A616D81422E
:1003700000D26065311D184A14235843101800F04C
:10038000F5FAF06AA16AC96A884200D32566012598
:1003900020680028E0D1002E01D000F06AF9E66D57
:1003A000002E07D000F01AF8002800D02566761E2F
:1003B000F8D1E765206E002802D0009500F048FBD8
:1003C00000F058FB0098F2BD0248006D7047000035
:1003D000E01D0020E01D002028100020F8B50024BA
:1003E000884D286F00284ED1286D401C009028654C
:1003F000009800280ED1E86A0068002801D072B683
:10040000FEE7E86A296BE9622863686E401C68664B
:1004100000F02FF97C4F0098E96E88422AD31AE049
:10042000301D00F0C9FAB06A002803D0300018303F
:1004300000F0C2FAF06A696D814200D26865311D30
:1004400014225043381800F091FAF06AA96AC96A78
:10045000884200D30124E86A0068002802D1002005
:10046000C04306E0E86AC068C668706800998142C7
:10047000D6D2E866A86AC06A1421484338580228D0
:1004800004D3012402E0E86D401CE865286E0028D2
:1004900000D001242000F2BD10B55A48016F002998
:1004A00002D00121016610BD0166416D00E0491EC8
:1004B000554A14234B43D2181368002B03D100294B
:1004C000F5D172B6FEE753685B68536014000834D8
:1004D000A34201D15B6853605268D2688262416571
:1004E00010BD000010B50C00002801D172B6FEE767
:1004F0004449896A183100F045FA01E00D06000808
:100500000121200000F002F910BD000038B50C00F8
:100510001500002801D172B6FEE73A49896A183100
:1005200000F024FA002D01D00024E443290020002B
:1005300000F0ECF831BD000038B5C068C468002C8C
:1005400001D172B6FEE72000183000F035FA2D4DCB
:10055000286F00280DD1201D00F02EFAE06A696D89
:10056000814200D26865211D274A14235843101880
:1005700002E021001831280000F0F8F9A86AC06AEA
:10058000E16A884202D20120286632BD002032BDD5
:100590001C494A6E0260096D41607047F0B583B036
:1005A00005000C00002D01D172B6FEE7002C01D130
:1005B00072B6FEE700F052FA12490A6D68680190BF
:1005C000101A0090236800260020C043834211D0F7
:1005D000496E2F68B94202D001998A4209D2009926
:1005E000994205D2581A20602800FFF7D1FF01E098
:1005F0002660012600F03EFA3000FEBD01200149D0
:1006000008667047E01D00202810002070B53D4CA2
:100610003D4D11E000F022FA286AC668301D00F056
:10062000CBF9E86C401EE864686B401E686300F01C
:1006300021FA300000F00AF8686B0028EAD120683F
:100640000228F9D300F004FAF6E7000010B5040020
:100650005920205C010006D1206B00F0CDF820006D
:1006600000F0CAF810BD0128F9D00228FAD072B6FD
:10067000FEE72548C16A0968002902D10021C94363
:1006800003E0C16AC968C9684968C16670471E4805
:10069000816D002901D101207047006F002801D130
:1006A000022070470020704738B504000020002C5D
:1006B00027D0154DA96A8C4201D072B6FEE7216D94
:1006C000002901D172B6FEE7491E2165E26AE36C9A
:1006D0009A4216D0002914D1201D00F06DF9E06C6B
:1006E000E0623821081AA061E06A696D814200D297
:1006F0006865211D034A14235843101800F036F989
:10070000012032BD28100020E01D0020F8B50400B3
:100710000E00134D2F6DA86A001D00F04DF900204A
:10072000C043844208D1002E06D0A86A011D2800CB
:10073000383000F01BF9F1BD3C19A86A4460BC4296
:10074000A86A04D2011D286B00F01CF9F1BD011D3F
:10075000E86A00F017F9E86E844200D2EC66F1BD59
:10076000E01D0020F8B5040000270097654DA8683B
:10077000002801D172B6FEE7FFF7D2FD686920407C
:1007800036D1002C34D008340720044203D0210095
:10079000083120400C1A002C2AD0E868A04227D348
:1007A00028002E6801E030000E007168A14202D2DC
:1007B00031680029F7D1A9688E4219D00168083143
:1007C0000091316801607068011B112904D3301950
:1007D0004160746000F030F87068E968091AE960F7
:1007E0002A69914200D229616969014371603760C9
:1007F000FFF79CFD0098F2BD002800D1704738B586
:100800000838040060683F4D6969084201D172B63A
:10081000FEE72268002A01D072B6FEE788436060D6
:10082000FFF77EFDE86861684018E860200000F08E
:1008300003F8FFF77BFD31BD30B5324A110000E00F
:1008400019000B688342FBD34B68CC18844203D158
:10085000406818184860080044680B6805199D42F4
:1008600008D19268934204D05A68A21842601B686B
:1008700000E013000360814200D0086030BD00003A
:10088000F1B50022002300241E4DA868002801D0E5
:1008900072B6FEE7009813E029606A608E19083E80
:1008A0000727BE43AE6072603260771A4F600E60F9
:1008B000002800D00160DB19641C0098E10040189A
:1008C0004668002E14D000680700790704D0FF1D89
:1008D00007218F43F11B0E183900A868002CDBD0CC
:1008E000002801D172B6FEE7B842D7D372B6FEE750
:1008F0002B61EB60002B01D172B6FEE78020000671
:100900006861F1BDFC1E00201206130A1A43130C85
:100910001A4300BF130030B414001500103902D37D
:1009200010393CC0FCD2490700D30CC000D504C02C
:10093000890002D30280801C002900D5027030BCDF
:10094000704700000022E5E7010008314160002106
:10095000C943816001000831C160010008310161B3
:1009600000210160704700210161704742684A60C0
:1009700093688B6093685960916008610168491CB5
:100980000160704730B50A680023DB439A4201D109
:10099000036907E00300083300E023005C68256872
:1009A000AA42FAD25A684A6091608B605960086125
:1009B0000168491C016030BD0169826843689A6022
:1009C000426883685A604A68824201D182684A60FC
:1009D000002202610868401E086008687047FEE750
:1009E00010B5130002000C3A802464049460516036
:1009F0002E49116020380360203810BD2C48006853
:100A00000021C943884201D072B6FEE772B6FEE704
:100A100038B528480168FF2212040A4302600168C1
:100A2000FF2212060A430260234D00242C60AC60B2
:100A300022480068FA21890000F0A6FA401E68608A
:100A4000072028601A48046000F019FB002032BD1E
:100A5000802040051A49086006E0000072B614487C
:100A60000168491C016000BFBFF34F8FBFF36F8F58
:100A7000704700000E480168002901D172B6FEE7F8
:100A8000491E0160002900D162B6704710B500F020
:100A900007FB0400FFF7A2FC002803D080204005DC
:100AA00007490860200000F0FFFA10BDFD090008AA
:100AB0001400002020ED00E010E000E02400002001
:100AC00004ED00E010B5EFF30580002807D1194CC4
:100AD000EFF31080002804D02068022801D10520FF
:100AE0000AE02068002806D1201DFFF7C9FE01207A
:100AF0002060002010BD0020C04310BD80B5EFF382
:100B00000580002807D10B48EFF31081002904D09D
:100B10000168022901D1052009E00168012905D1F8
:100B200002210160FFF7CCFB002002BD0020C04382
:100B300002BD000000000020F3B587B010000024C3
:100B40000494EFF3058100294AD1EFF310810029C5
:100B500003D025490968022942D0079900293FD0CE
:100B6000802218236D462C7303A900282DD0056818
:100B7000002D00D029008569002D03D02B0004D062
:100B8000392B02D20579ED0701D5002029E045690E
:100B9000002D00D0AA08C66887680597002F0FD0DF
:100BA0005C2E1DD3006900281AD0002D18D00297A2
:100BB00001900093089B0798FFF77CFA04900FE0E0
:100BC000002E0DD1006900280AD104A801900093DD
:100BD000089B92B20798FFF793FA012800D004947B
:100BE000049809B0F0BD00000000002010B5EFF33C
:100BF0000581002907D1EFF31081002906D00749AC
:100C00000968022902D10524E44304E000240028F5
:100C100001D0FFF73BFB200010BD000000000020CA
:100C2000084B036018005C3008608020106070473B
:100C3000054B036018005C300860802040001060A5
:100C400070470000E41800208814002010B586B01A
:100C500000F068F96A4CA068002819D000200590BF
:100C6000049003AA04A905A8FFF7E2FF05980290E3
:100C700004980190022000900023039A05A1614886
:100C8000FFF718FAE060002802D0012006B010BD7E
:100C900072B6FEE7546D722053766300F0B585B0EE
:100CA00005001F000020002D01D172B6FEE7544C54
:100CB000A668002E18D000910192029506290DDA3F
:100CC000FFF7E5FC022802D100230A9A01E0002385
:100CD00000226946A06800F05BFA05E000233A00B4
:100CE0006946300000F0E4FA05B0F0BD70B582B09E
:100CF00005000E0042480068C068C468201DFFF768
:100D00005BFEE069012814D12B003200A06929188C
:100D1000200000F05AF800280BD00020009000239B
:100D20002A0000212000FFF7B9FF002801D172B688
:100D3000FEE72000616A884773BDF8B5304F03E0D5
:100D4000FFF7F4FA00F060F8386800240168002921
:100D500001D1012602E00026C0680468FFF7E0FA2E
:100D6000684600F020F8050000980028E8D1002E21
:100D700008D1A5420BD3FFF7D9FA29002000FFF7CD
:100D8000B5FFDFE778680068461EB641F60F32000F
:100D9000611BB86800F0FCFBFFF7C8FA0028D1D14E
:100DA000FFF756FECEE770B50400FFF70DFB050018
:100DB000714E3068854203D200F086F8012000E0D1
:100DC000002020603560280070BD38B500244160E7
:100DD00000610B4D8A4206D3D11A8269914206D234
:100DE000011D686807E09A4203D2994201D30124A9
:100DF00003E0011D2868FFF7C5FD200032BD00009B
:100E0000B81C00203B0D000830B587B004E013008B
:100E100011182800FFF7D9FF002201A95748806860
:100E200000F090FA00284DD00198002803D50499CD
:100E30000398029A904701980028EDD4039D2C0056
:100E400014342068002802D0281DFFF7B5FD05A83E
:100E5000FFF7A9FF02000198022809D9001F24D03A
:100E6000401E28D0401E012802D9C01E1DD0D3E745
:100E700002980300616841182800FFF7A6FF0028C8
:100E8000CAD0280021698847A0680128C4D1002061
:100E90000090002302986168421800212800FFF7A3
:100EA000FDFE0028B8D172B6FEE702986060002807
:100EB000ADD172B6FEE7207E0028ADD12800FFF745
:100EC0009BFCA9E707B030BD70B582B02B4E05E0A2
:100ED00060602461211D3068FFF754FD30680168AF
:100EE00000291BD0C0680568C468201DFFF764FD99
:100EF0002000616A8847E0690128EFD1A0692818BD
:100F00008542E5D30020009000232A000021200024
:100F1000FFF7C4FE0028E1D172B6FEE771683160C8
:100F2000706073BD10B582B0FFF798FD134CA068D8
:100F300000281ED120001030FFF706FD20002430CD
:100F4000FFF702FD20001030206020002430606098
:100F500000200090230038332200883210210A201C
:100F600000F0E2F8A060002803D000BF04A100F068
:100F7000FEFAFFF77FFD13BD141F0020B81C0020F0
:100F8000546D7251000000000022030A8B420BD204
:100F900003098B4219D243088B422ED2411A00D248
:100FA0000146524110467047FF2209023FD0120607
:100FB0008B4205D3121209028B4201D3121209028D
:100FC00003098B4219D300E0090AC3098B4201D3FC
:100FD000CB01C01A524183098B4201D38B01C01A45
:100FE000524143098B4201D34B01C01A52410309BC
:100FF0008B4201D30B01C01A5241C3088B4201D36B
:10100000CB00C01A524183088B4201D38B00C01A17
:10101000524143088B4201D34B00C01A52418842CF
:1010200000D3401A5241CFD201461046704708B54E
:1010300000F0D2FA08BDFEE780F308887047EFF3AE
:1010400009801B4B1A6820381060F0C044464D469A
:1010500056465F46F0C008B572B6FFF71DFA62B695
:101060000CBC116808681030F0C8A046A946B2460A
:10107000BB4680F309882038F0C8184770470C4BEE
:1010800019680868203080F30988022080F31488EA
:10109000BFF36F8F3FBCAE4608BC04BC62B61847B6
:1010A000EFF3108072B6704780F31088704700002D
:1010B000081E002038B505000C00002D01D172B6C5
:1010C000FEE7FFF7CBFC2868E96B2A6C5143401818
:1010D00068600020A8632868A8602868E96B491E3A
:1010E0002A6C51434018E860280044300021C9436D
:1010F00001704170002C0BD12869002810D0280005
:101100001030FFF719FA00280AD0FFF7A1FC07E01A
:1011100028001030FFF718FC28002430FFF714FCDB
:10112000FFF7A8FC012032BD38B51C00002801D112
:1011300072B6FEE7002C01D172B6FEE7002A03D09A
:10114000002903D172B6FEE700290DD15023009388
:10115000009B502B0AD10123462563550094049B24
:1011600000F006F8200032BD72B6FEE772B6FEE768
:1011700038B51C00049D002900D12A002A60E863CC
:10118000296401212800FFF795FF4C202C5431BD24
:10119000FEB584B0040000260096002C01D172B682
:1011A000FEE7270024370498002802D1F8690028B8
:1011B0000ED10698022802D1B86901280AD1FFF79A
:1011C00066FA00280DD1059800280AD072B6FEE70D
:1011D00072B6FEE772B6FEE7200000F088F9FFF76E
:1011E000A5F8FFF73BFC7869B969884202D30698F5
:1011F000022812D1069A0499200000F02DF93968CE
:10120000002902D03800FFF797F9002801D0FFF736
:101210001FFCFFF72FFC012048E00598002802D1B1
:10122000FFF728FC41E001250098002803D101A820
:10123000FFF7AEF90095FFF71DFCFFF771F8FFF718
:101240000DFC200044300021C943002282568A420E
:1012500000D1067042578A4200D14670FFF70AFC5F
:1012600005A901A8FFF79AF9002819D1FFF7F6FBA5
:101270007869B969884200D00025FFF7FBFB002D93
:10128000AAD0059920001030FFF72CF9200000F0BB
:101290002EF9FFF74BF80028A3D1FFF7D9FBA0E701
:1012A000200000F024F9FFF741F8002007B0F0BD5E
:1012B000F7B504001E00002C01D172B6FEE700292C
:1012C00003D12430C06900282DD1022E04D1200082
:1012D00024308069012828D1FFF7E2FE07002000B2
:1012E00024304069210024318969884201D3022ECB
:1012F00021D14520255632000199200000F0ACF89C
:1013000001260020C043854211D1606A002813D015
:1013100020002430FFF710F900280DD00298002893
:101320000AD0066008E072B6FEE772B6FEE76D1CF2
:101330004520255400E000263800FFF7B5FE3000B8
:10134000FEBD0000F6B583B0040000270026002C87
:1013500001D172B6FEE7002903D11030006B0028DE
:1013600008D1FFF794F900280BD10498002808D081
:1013700072B6FEE772B6FEE7200000F0B8F8FEF79E
:10138000D5FFFFF76BFB20001030856A002D16D0CB
:101390000399200000F098F86D1E2000103085623F
:1013A0002069002807D020001030FFF7C5F800287A
:1013B00001D0FFF74DFBFFF75DFB012046E00498ED
:1013C000002802D1FFF756FB3FE0002E03D168460C
:1013D000FFF7DEF80126FFF74DFBFEF7A1FFFFF751
:1013E0003DFB200044300021C943002282568A423E
:1013F00000D10770012282568A4200D14770FFF760
:1014000039FB04A96846FFF7C9F8002813D120006A
:1014100000F0A3F80028AFD0049920002430FFF793
:1014200061F8200000F063F8FEF780FF0028A8D1E3
:10143000FFF70EFBA5E7200000F059F8FEF776FF56
:10144000200000F08AF800289BD0002005B0F0BDF5
:10145000FFF710FB200010BDF8B5040017000026B0
:101460000096A56B226C002A08D12068002827D19D
:101470006068FFF719F90090666021E0002F0CD139
:10148000A06800F0ABF8A068216C4018A06061680B
:10149000884215D32068A06012E0E06800F09EF852
:1014A000216C4842E1680918E1602268914202D249
:1014B00061680818E060022F02D1002D00D06D1E77
:1014C0006D1CA5630098F2BD030008001A6C002A89
:1014D00000D1704710B5D9688918D9605C68A142FD
:1014E00001D31968D960D96800F078F810BDF8B553
:1014F0000500FFF7B3FA2F00443701203E562C00B9
:10150000103408E028002430FFF716F8002801D036
:10151000FFF774F8761E76B2012E02DB60690028B0
:10152000F0D10025ED437D70FFF7A4FAFFF796FA9E
:1015300000203E5607E02000FEF7FEFF002801D005
:10154000FFF75CF8761E76B2012E02DB20680028D9
:10155000F1D13D70FFF78EFAF1BD10B50400FFF731
:101560007DFAA06B441EA441E40F71E7000010B5A2
:101570000022064BD4001B191C68002C02D11960F4
:10158000586010BD521C082AF3D310BD7C1E0020E9
:10159000F8B504000F001500FFF760FA2600383692
:1015A00000210020C0430C22B256824200D1317388
:1015B0000D22B256824200D17173FFF75BFA306898
:1015C000002805D12A00390020002430FEF79EFFB4
:1015D0002000FFF78CFFF1BD7047FEE7124207D0F5
:1015E0008B0706D00B78491C0370401C521EF7D89D
:1015F0007047830706D00B78491C0370401C521EAD
:10160000F9D1704770B4103A03D378C9103A78C052
:10161000FBD2530701D318C918C001D508C908C0A7
:10162000D20704D30B880380891C801C002A01D5B3
:101630000B78037070BC7047F0B583B0040019D00C
:10164000AC4D2078C00717D58027BF0268680C21F1
:101650000140042909D068680C21014008293FD1C4
:1016600068687908084088423AD12868074003D062
:101670006068002800D19CE102272068384019D01A
:1016800068680C21014007D068680C2101400829D6
:101690005CD16868C00359D42868384003D0E0683A
:1016A000012800D085E12868F82188432169C90014
:1016B000014329602078000779D5E0690028686A2D
:1016C00066D001210143696200F074FA0600686A7D
:1016D00038406CD100F06EFA801B0328F7D352E13A
:1016E0006168012902D1286879080BE0B348B44A3F
:1016F00000290AD0052908D128687900014329600A
:101700002868D1430143296005E029680A402A601E
:10171000296808402860606800280BD000F04AFA69
:10172000060028683840A7D100F044FA801B6528DD
:10173000F7D328E100F03EFA0600286838409BD035
:1017400000F038FA801B6528F7D31CE1E068002818
:1017500028680ED001210143296000F02BFA060011
:10176000286838409FD100F025FA801B0328F7D362
:1017700009E101218843286000F01CFA060028686E
:10178000384097D000F016FA801B0328F7D3FAE010
:1017900001218843686200F00DFA0600686A38404B
:1017A00005D000F007FA801B0328F7D3EBE0207880
:1017B000400762D500200090F806E969014008D191
:1017C000E9690143E961E969084001900198012054
:1017D00000907C480068C00512D47A480068A90DC2
:1017E00001437848016000F0E5F90600754800689B
:1017F000C00505D400F0DEF9801B6528F6D3C2E0F1
:10180000A068012809D0002801D1286A0AE005282B
:10181000286A07D1042101432962286A0121014372
:10182000296206E0012188432862286A042188434E
:101830002862A06800280CD000F0BCF90600286AD5
:10184000384013D100F0B6F9801B9F498842F6D387
:1018500099E000F0AFF90600286A384006D000F0A1
:10186000A9F9801B98498842F6D38CE0009800289B
:1018700003D0E86995490140E9612078C0061DD58B
:101880006069012838D1686B042101436963686B82
:1018900001210143696300F08DF90600686B38404F
:1018A00005D100F087F9801B0328F7D36BE0686B44
:1018B000F8218843A169C90001436963206A0028AF
:1018C00079D069680C220A40082A5ED03F06954903
:1018D000022828684AD10140296000F06BF906000F
:1018E0002868384024D000F065F9801B0328F7D31E
:1018F00049E000BF001002400421C9438842686BE0
:1019000003D1042188436863D1E70421014369635B
:10191000686B01218843686300F04CF90600686B2E
:101920003840CBD000F046F9801B0328F7D32AE0DB
:10193000E86A0F218843E16A0143E96268687F49E8
:101940000140A06A0843616A014369602868790818
:101950000143296000F02EF90600286838402AD19A
:1019600000F028F9801B0328F7D30CE00140296020
:1019700000F020F90600286838401CD000F01AF961
:10198000801B0328F7D30320FEBD012811D068680F
:10199000E96AFA030240636A9A420AD10907090F09
:1019A000E26A914205D1F02189030140A06A814297
:1019B00001D00120FEBD0020FEBD0000FFFFFBFFA7
:1019C000FFFFFEFF00700040F2B582B0040060D05F
:1019D0000127FF43012566480068284088420AD253
:1019E000634800683840014361480160006828404E
:1019F000029988424DD121685E4E022001420CD0EE
:101A0000490704D57168E022D2000A437260716808
:101A1000F0229143A2680A4372602168294026D0CF
:101A20006168012902D13068800303E0022903D1F3
:101A30003068800103D42CE03268104029D07068EF
:101A4000032290430143716000F0B4F80090706885
:101A50000C21014060688000814208D000F0AAF8A3
:101A60000099401A18498842F1D30320FEBD02981C
:101A70003F490968294088420DD23D480068074027
:101A8000029838433A490860086805400298854240
:101A900001D00120FEBD2078400705D57068364989
:101AA0000140E0680843706000F012F83349726842
:101AB0001206120F895CC84031490860002000F00E
:101AC0007FF80020FEBD000089130000FFFFFFEF3C
:101AD00030B589B004A800BF2EA11022FFF792FDF7
:101AE000684600BF2FA11022FFF78CFD25490A6828
:101AF00025480C231340082B11D10F2304AC950C5F
:101B00001D40645D6D46896A0B40E95CD20303D5D4
:101B1000FFF73AFA604302E020001C49484309B04D
:101B200030BD0000FFFFFFFE154800681849154A48
:101B300012685205520F895CC8407047FFFFC2FF10
:101B400010B5072202600F4A13689B079B0F436082
:101B50001368F0241C4084601268E023DB0013400B
:101B6000C36003480068C207D20F0A6010BD0000BE
:101B70000020024000100240FFF8FFFF2032000862
:101B8000240000200410024000127A0000093D00E9
:101B90005832000802030405060708090A0B0C0D59
:101BA0000E0F10100102030405060708090A0B0CAA
:101BB0000D0E0F1001484068704700BF180000204C
:101BC00010B586B000220100102000F04FF8102060
:101BD00000F050F8022013490A6802430A600968BD
:101BE00008400090009801A902A8FFF7A9FFFFF79D
:101BF0009BFF0D4C0D4921600D49E1600D49FFF738
:101C0000C3F9401E606000202061A060200000F049
:101C100041F8002803D1200000F04BF800E001203B
:101C200006B010BD1C100240BC1E00200004004085
:101C3000E703000040420F0010B5C2001823134014
:101C4000FF249C40E2438907090E9940002801D4F3
:101C50000D4B03E00D4B0007000F08388008800093
:101C6000181803681A401143016010BD80B5FFF7D2
:101C7000E3FF01BD002805D40121C006C00E81404C
:101C8000034801607047000000E400E01CED00E044
:101C900000E100E038B5040001D1012032BD25008B
:101CA0003C356878002803D12870200000F068FADD
:101CB0000EE000680121C2680A43C26082685207D0
:101CC000520F062A02D002681143016000207047BB
:101CD00002206870211D206800F02AF90120687038
:101CE000002032BD38B5040001D1012032BD2500ED
:101CF0003C356878002803D12870200000F0BBFA3A
:101D0000E6E7F8B5040020680025022601693140A5
:101D100015D0C168314012D00221C94301610121AF
:101D200021778069800703D0200000F015FB05E0D3
:101D3000200000F012FB200000F010FB2577206847
:101D400004270169394016D0C168394013D00421F5
:101D5000C943016126778069C0218900014003D011
:101D6000200000F0F9FA05E0200000F0F6FA20006B
:101D700000F0F4FA2577206808260169314014D074
:101D8000C168314011D00821C94301612777C0697A
:101D9000800703D0200000F0DFFA05E0200000F00B
:101DA000DCFA200000F0DAFA2577206810210269B9
:101DB0000A4016D0C268114013D01021C9430161F6
:101DC0002677C069C0218900014003D0200000F0BF
:101DD000C3FA05E0200000F0C0FA200000F0BEFACF
:101DE000257720680169C90708D5C168C90705D5E5
:101DF0000121C9430161200000F0D3FB206880214C
:101E000002690A4008D0C268114005D08021C94348
:101E10000161200000F0FAFB2068402102690A40BD
:101E200008D0C268114005D04021C943016120009B
:101E300000F0EDFB2068202102690A4008D0C2684A
:101E4000114005D02021C9430161200000F0E0FBD2
:101E5000F1BDF8B504000D003C20205C012801D143
:101E60000220F2BD01203C216054022021003C31BF
:101E700048702E4F8602002A06D0042A16D0082A5F
:101E800027D00C2A37D048E02900206800F088F8D5
:101E90002068816908220A438261206881690422DE
:101EA00091438161206881692A690FE029002068D7
:101EB00000F0B1F8206881690E438661206881696D
:101EC0000F408761206881692A6912020A43826192
:101ED00023E02900206800F0D2F82068C1690822B8
:101EE0000A43C2612068C16904229143C16120682C
:101EF000C1692A690FE02900206800F0F2F8206823
:101F0000C1690E43C6612068C1690F40C76120687E
:101F1000C1692A6912020A43C261012021003C31D1
:101F2000487000203C216054F2BD0000FFFBFFFF21
:101F3000F0B50668804A814B814C824DA84201D0A1
:101F4000A04206D17027BE4337004E683E43A842E8
:101F50000BD0A04209D07C4CA04206D0984204D0BD
:101F6000904202D07A4CA04203D1784C3440CE68E3
:101F700026438024A6434C69344304608C68C462C1
:101F80000C688462A84206D0984204D0904202D0E5
:101F90006F4A904201D10969016301214161F0BD9D
:101FA000F8B5026A01239A430262036A42688469AF
:101FB0007325AC430D68254300950224A3438C6828
:101FC0001C435D4B5D4D5F4EB04206D0A84204D02D
:101FD000984202D05E4FB8420CD10827BC4327007C
:101FE000CC683C430427BC43B04206D0A84204D08E
:101FF000984202D0564B984205D1574B13404D6939
:102000001D438A692A434260009A8261496841639C
:102010000462F1BD000070B5026A10239A430262A7
:10202000026A436884694B4D25400C6824022C43A6
:102030002025AA438D682D011543424A904208D1BC
:10204000802295432E00CA681501354340229543EE
:1020500008E03A4A904205D0374A904202D03C4AC2
:10206000904206D13D4A1A404B698E691E43B30027
:1020700013434360846149688163056270BD70B534
:10208000026A374B13400362046A4268C5697323CE
:102090009D430B682B43334D25408C6824022C4311
:1020A000284DA84207D1304D2540CC6826022E434A
:1020B0002E4C344008E0214DA84205D01E4DA842C8
:1020C00002D0234DA84206D1294D15404A698E6998
:1020D000164332012A434260C3614968C163046206
:1020E00070BD30B5026A234B13400362036A426835
:1020F000C469184D25400C6824022C431E4D1D4018
:102100008B681B032B430F4DA84208D00B4DA842F0
:1021100005D0094DA84202D00D4DA84204D1174D5B
:1021200015404A6992012A434260C46149680164CA
:10213000036230BD00000000004401400040014047
:1021400000040040002C014000200040FFFCFFFF85
:1021500000480140FF8CFFFFFFFCFFFFFFF3FFFF84
:10216000FFFEFFFFFFFDFFFFFFF7FFFFFFFBFFFF8E
:10217000FFCFFFFFFFEFFFFFFFDFFFFFFFBFFFFF0F
:102180007047FEE780B501206D490A6802430A6086
:102190000A68104000900098802040054A68024379
:1021A0004A604968084000900098002203210120FD
:1021B000C043FFF75BFD002203210420FFF756FD1B
:1021C0000420FFF757FD01BD10B586B0040001A83B
:1021D0001421FEF7B7FB20685A4988421CD15A489F
:1021E000410D42680A4342604268114000910099E3
:1021F0008021890202680A43026000680140009160
:10220000009801200190032002900020039001A972
:102210009020C00500F0FEF906B010BD10B586B0E4
:10222000040001A81421FEF78DFB2068474988426D
:102230001FD14548810C42680A4342604268114000
:10224000009100998021890202680A4302600068B7
:10225000014000910098A0200190022002900020EF
:10226000039003210491059001A99020C00500F07E
:10227000D1F906B010BD81B000683549884208D157
:10228000C80C2F490A6802430A6009680840009098
:10229000009801B0704710B586B0040001A8142161
:1022A000FEF750FB20682A49884217D1802080021F
:1022B00025490A6802430A600968084000900098AE
:1022C00080200001019002200290002103910491DE
:1022D000059001A99020C00500F09CF906B010BD42
:1022E00010B586B0040001A81421FEF72BFB20686E
:1022F0001849884222D114488021C90142680A4302
:102300004260426811400091009980218902026870
:102310000A4302600068014000910098C020C0009C
:1023200001900220029000200390032004900120DD
:10233000059001A99020C00500F06CF906B010BD11
:1023400018100240002401401410024000300140E7
:10235000002C014000380140704770477047FEE78D
:10236000F0B59BB000F030FA00F0E5F803A81421B6
:10237000FEF7E8FA8021C9038E4802680A4302602A
:1023800002681140009100998021890202680A4385
:10239000026002681140009100998021C902026820
:1023A0000A43026000680140009100989026F605FB
:1023B00000224021300000F0F4F97F4D00220F216F
:1023C000280000F0EEF94020039001270497002434
:1023D0000594069403A9300000F01CF90F20039027
:1023E00004970594069403A9280000F013F908A89F
:1023F0000C21FEF7A7FA714E714830607460B4602A
:10240000F460376104207061B461FF20C230F06174
:102410003462350024352C706F60300000F0E4F930
:1024200008943803099000040A9008A9300000F0CD
:1024300095FA922040003718624838640320786487
:102440006148F864B864B2204000301800F010FB16
:102450005E48E8618220400028626C62C0208000F3
:10246000A862EC622C638020800068632020A8634F
:10247000EC632C646C640720A864EC640820286575
:102480003000403000F020FB55A003C801AA03C271
:1024900013A81C21FEF756FA0BA82021FEF752FACA
:1024A0004B4838607C60BC60FC603C617C61BC6116
:1024B0003800FFF717FC0194029401A9380000F0DE
:1024C00061FB602013901494159417941894199438
:1024D0000C2213A93800FFF7BCFC0B940C940D944C
:1024E0000E940F9480208001109012940BA9380054
:1024F00000F06FFB3800FFF7CEFE3000A430354906
:1025000001609621090241608460C46004610C216D
:1025100041618461C4610462446200F097FBFEF78C
:10252000D1FA00BF30A200212B48FEF705FB386529
:10253000FEF7E4FAFEE770B594B008A83021FEF784
:1025400001FA68461021FEF7FDF904A81021FEF7F4
:10255000F9F919200890012409940D9410200E9087
:102560000F9402251095000311900001129000268F
:10257000139608A8FFF760F80720009001950296CF
:10258000039601216846FFF71FFA0494069404A8F5
:1025900000F02EFD14B070BD80B50120FEF726FBC3
:1025A000FBE700680D49884200D0704780B500F015
:1025B0009FFD01BD1410024000040048401B002094
:1025C0000024014000300040FF0F000000300140B7
:1025D000002C01400038014099250008000400400B
:1025E0000000000000000000403200080000000071
:1025F00000000000000000000000000000020000D9
:102600001800000000000000000000007047704744
:102610007047FEE7FFB5002329E005256F46BF7828
:10262000BD403543039E3560614D2E68E5432E4025
:102630004F68FF0300D526435D4F3E607E682E4005
:102640004F68BF0300D52643594F7E60BE682E40B9
:102650004F68FF0200D52643554FBE60FE683540E7
:102660004E68B60201D52C432500FD605B1C0D6849
:102670002C00DC4000D193E001249C4002942C40CB
:10268000F4D09D006E4675704D68022D01D0122D5C
:102690001AD1DD08AD0045192E6A01966E4677788D
:1026A0001C263E406F463E70019FBC466E46377802
:1026B0000F26BE406746B743BC460F696E46367864
:1026C000B740664637432F6206685D006F463D702F
:1026D00003253F78BD40EF4301973D4635400E79D5
:1026E000B607B60F6F463F78BE402E4306604D6872
:1026F000012D05D0022D03D0112D01D0122D11D1A5
:102700008668019D3540CE686F463F78BE402E43B7
:1027100086604568029EB5434E68F706FF0F9F40EE
:102720002F434760C668019D35408E686F463F78ED
:10273000BE402E43C6604D68ED0097D51D4D2D68F7
:1027400001262E431B4D2E602D68EE07F60F0196D5
:10275000019D194D9E08B600AD1903952E686D4672
:102760006F780C253D406F46BD706D46AF780F25E4
:10277000BD40AE439025ED05A84201D100254DE7AF
:102780000E4DA84201D1012548E70D4DA84201D1C7
:10279000022543E70B4DA84200D03EE703253DE765
:1027A000FFBD002A01D0816170478162704700003F
:1027B00000040140181002400800014000040048D5
:1027C00000080048000C004880B506480168102247
:1027D0000A4302600020FFF7F3F9FFF7D3FC002063
:1027E00002BD000000200240F8B504000025002CC6
:1027F00001D10120F2BD260024367069002804D1E1
:10280000B06130742000FFF7DFFC102170690840D0
:1028100003D1226804209368034000D092E07769D6
:102820004B4B3B4002271F43776193689B079B0FED
:10283000012B05D11368DB070FD4D3681B040CD41C
:10284000D3681827BB43A7681F43D7602268136962
:102850009B009B0867681F4317612268D3683D4F40
:102860001F40D7607268012A01D0830200E0002374
:102870002269022A01D1009000E00095A27E207E0C
:102880008003677EFF030743500338430343E06838
:102890001843009B0343307840001843E37E012B2C
:1028A0000DD1002A03D102000803104307E072692A
:1028B000202313437361B26901231343B361E269B7
:1028C000FF23C2339A4203D00300206A1043184307
:1028D0002268D3680343D360B2680B069A420DD0D6
:1028E000012A0BD0022A09D0032A07D0042A05D0D6
:1028F000052A03D0062A01D0072A0BD12268536982
:102900000727BB43536122685369377A7F077F0FDC
:102910001F4357610222D2432368DB680E4C1C40E0
:10292000844206D1B5617069024001201043706194
:102930000CE07069024011437161B06901210143EB
:10294000B16102E070690143716101252800F2BDA7
:10295000FFFEFFFF1902FEFFE7FF3F83F1B582B0E4
:10296000002400250194029834300090007801285A
:1029700001D10220FEBD0122009B1A70029803685B
:10298000986840075BD40868824033484E68334FEC
:10299000BE429E6A45D032439A62029AD26A80232E
:1029A0005B059A421FD0012A1DD0022A1BD0032AA0
:1029B00019D0042A17D0052A15D0062A13D0072AC1
:1029C00011D0029A136807228E685F691740BE42D1
:1029D00009D05E6996435E61029B1B685E698F68E1
:1029E0003A4032435A610A68102A17D0112A2DD171
:1029F0008022D20303681A4302600868102825D198
:102A0000174800681749FEF7BFFA0A2148430190AA
:102A1000019800281AD00198401EF8E7802212047D
:102A2000E8E796439E620968102906D011290DD166
:102A30000D4902681140016008E00C49F9E700986F
:102A400040682021014300984160012500980470EE
:102A50002800FEBD00000000082701400110000012
:102A60002400002040420F00FFFFBFFFFFFF7FFF59
:102A700038B5040001D1012032BD20680F49016042
:102A80000F49016061684160A1688160FFF792F8B9
:102A900005002068C168002906D0FFF78BF8401BAD
:102AA0003128F6D3032032BDE16802698A4201D0A1
:102AB000016101E003490160002032BDCCCC00007F
:102AC00055550000AAAA0000F8B5040001D1012064
:102AD000F2BD0026A66225005C356878002803D187
:102AE0002E702000FFF79AFB02226A7020680168AE
:102AF000402399430160E3682048834205D30020C6
:102B0000F02109018B4205D105E0D002E021C90086
:102B10008B4200D0A6620121276B002F05D1174FF1
:102B2000BB4201D3226300E021636268A3681343C0
:102B300027691F4362693A43A3694F023B4013432D
:102B4000E2691A43236A1343A26A1A4323681A608C
:102B5000A269120C04231A40636A1343626B1A437E
:102B6000E36813431843226850602068C269044B2D
:102B70001340C3616E6069700020F2BD0107000060
:102B8000FFF7FFFFF0B502003C321378012B01D1B3
:102B90000220F0BD012313700224547005686E6892
:102BA000AC687027BE430F6837436F600068214DE3
:102BB000A84205D0204DA84202D0204DA84204D101
:102BC0008025AC4349682143816053700020107018
:102BD000F0BD3C22825C012A01D102207047012213
:102BE0003C23C254CA68164B13408A681A430E4BE2
:102BF00013404A681A430D4B13400A681A43114B9D
:102C000013400A691A430A4B13404A691A430E4B90
:102C10001340C96919430268516400213C22815460
:102C20000020704700000000FFFBFFFFFFF7FFFFE1
:102C3000FFDFFFFF002C0140000400400040014086
:102C4000FFFCFFFFFFEFFFFFFFBFFFFF38B50400F2
:102C500014D0250070356868002803D12870200042
:102C6000FFF73EFB24206860206801680122914341
:102C70000160200000F020F8012801D1012032BDC0
:102C8000606A002802D0200000F0A6F820684168A1
:102C9000084A0A40426020688168082291438160A6
:102CA000FFE72068016801220A430260200000F06B
:102CB000F9F832BDFFF7FFFFF8B505000026002048
:102CC000002429680A68904B1340AA681A432B69AC
:102CD00013436A691A43EB6913430B604A688B4BD1
:102CE0001340EA681A434A608A68894B1340AA690C
:102CF0001A432B6A13438B601022864B99420FD1E3
:102D0000854909688907890F0DD0022906D003D3A8
:102D1000032909D1022207E0042205E0082203E08A
:102D2000A54B994200D10022A44F80231B02E969E0
:102D3000994227D1002A06D0022A07D0042A09D0B6
:102D4000082A0DD014E0FEF7EFFE05E06968480898
:102D50009B4A08E0FEF7BCFE696840004A0802E0B2
:102D6000696848085A008018FEF70EF980B200E042
:102D7000012401001039B94229D207400007400F51
:102D8000384321E0002A06D0022A07D0042A09D0BD
:102D9000082A0DD013E0FEF7C7FE05E06968480871
:102DA000884A03E0FEF794FE69684A08801802E04A
:102DB00069684808C018FEF7E7F880B200E001240F
:102DC00001001039B94202D22968C86000E001242C
:102DD0002E666E662000F2BD2421415CC90706D52F
:102DE00001684A68784B1340826A1A434A6024217A
:102DF000415C890706D501684A68744B1340C26A72
:102E00001A434A602421415C490706D501684A6893
:102E10006F4B1340026B1A434A602421415C09073F
:102E200006D501684A686B4B1340426B1A434A60EF
:102E30002421415CC90606D501688A68664B1340A7
:102E4000826B1A438A602421415C890606D5016899
:102E50008A68134B1340C26B1A438A602421415C79
:102E6000490611D501684A685C4B1340026C1A434D
:102E70004A60026C80235B039A4205D14A68584B32
:102E80001340426C1A434A602421415C090606D56E
:102E900001684A68534B1340806C18434860704780
:102EA000FFDFFFFFF8B5040000257030C560FEF7B6
:102EB00081FE06004C4F20680068000709D5009786
:102EC0003300002280218903200000F027F8002829
:102ED0000DD12068006840070BD500973300002211
:102EE0008021C903200000F019F8002801D0032038
:102EF000F2BD2020210070314860210070318860CF
:102F0000702025540020F2BDF369FFFFFFCFFFFFC3
:102F1000FFF4FFFF0038014030100240FEB504000E
:102F200080252D010026089F2068C0690099014076
:102F30000098814201D1012000E000206946097912
:102F4000884236D10020C0438742EDD0FEF732FEE2
:102F50000299401A874201D3002F0FD120680168DF
:102F6000224A0A4002602068816801229143816000
:102F70002000703020214160816017E020680168E6
:102F80004907D1D5C1692940CED0056220680168C2
:102F9000164A0A40026020688168012291438160DC
:102FA00020007030202141608160C16006700320E4
:102FB000FEBD0020FEBD000000440040F0FF000008
:102FC0000024F40000127A00FFFFFDFFFFFFFEFF68
:102FD000FFFFFBFFFF7FFFFFFFEFFFFFFFFFEFFFA5
:102FE000FFFF9FFFFFFFF7FFFFFFFF015FFEFFFFF8
:102FF000F0B583B004000127374D2068C00356D5D3
:103000000020009038072968014007D12968014352
:103010002960296808400190019800972F480068AE
:10302000C00512D42D480068A90D01432B4801604A
:10303000FEF7C0FD060029480068C00505D4FEF76C
:10304000B9FD801B6528F6D322E0C021890068689D
:1030500008401FD06268114088421BD06968204830
:10306000084069683A040A436A6069681D4A0A4070
:103070006A60686038400DD0FEF79CFD0600686805
:10308000800707D4FEF796FD801B17498842F6D3C8
:103090000320FEBD6868124901406068084368600B
:1030A0000098002803D02868104901402960206852
:1030B000074005D0686903218843A168014369611D
:1030C0002078800605D5686910218843E1680143AE
:1030D00069610020FEBD00001C100240007000402D
:1030E000FFFCFFFFFFFFFEFF89130000FFFFFFEF64
:1030F0000248416802788918416070471800002032
:1031000070B40121002213E00468001D0C4202D0BB
:103110004D466D1E64192260241D1B1F042BFAD21C
:1031200025009E0701D52280AD1C0B4000D02A70DF
:103130000368001D002BE7D170BC704730B50168F3
:103140004118446862088A188368E40701D54C4630
:103150001B19914201D10C3030BD0C7864B2491C6E
:103160000D78491C1D705B1C002C02D5641CF9D124
:10317000EFE7641EF4D5ECE710B507497944183140
:10318000064C7C44163404E0081D0A6889188847F8
:103190000100A142F8D110BD080000002400000089
:1031A00061FFFFFFF01A000028040020000000006B
:1031B0008DFFFFFFCA000000320000000000002069
:1031C00000F00BF8002801D0FFF7D6FF002000BF69
:1031D00000BFFFF7C5F800F002F80120704780B586
:1031E00000F002F801BDFEE70746384600F002F89D
:1031F000FBE7FEE780B500BF00BF024A11001820C0
:10320000ABBEFBE7260002007047FEE7704780B5C3
:103210000148FEF776FD01BDBC1E0020704700008E
:103220000000000000000000010203040607080976
:1032300001488047014800471D3200084D32000810
:1032400064656661756C745461736B0000BF00BF88
:1032500000BF00BFFFF7B4FF00000000010203043D
:10326000FEE7FEE7FEE7FEE7FEE7FEE7FEE7FEE736
:10327000FEE7FEE7FEE7FEE7FEE7FEE7FEE7FC000F
:103280000528040020000CF600FCAA0001F900004B
:0732900004FC0002127A00A9
:040000050800324D70
:00000001FF
